:020000040800F2
:10200000301F002049240008DD4A0008DF4A00088C
:10201000E34A0008E74A0008EB4A00080000000015
:10202000000000000000000000000000692100081E
:10203000EF4A000800000000F121000841220008DA
:102040006324000863240008632400086324000854
:102050006324000863240008632400086324000844
:102060006324000863240008632400086324000834
:102070006324000863240008632400086324000824
:102080006324000863240008632400086324000814
:102090006324000863240008632400086324000804
:1020A00063240008632400086324000863240008F4
:1020B000914B0008B14B0008D14B00086324000885
:1020C00063240008632400086324000863240008D4
:1020D00063240008F14A0008314B0008632400081B
:1020E000632400086324000863240008DFF80CD090
:1020F00003F0AAFD004800471D4C0008301F0020D7
:1021000080F309887047EFF309807047684680F3D1
:10211000098804480078C00714BF0220032080F318
:1021200014887047B4690008DFF818C0EFF305831E
:102130001B0618BF6047EFF31483DB0708BF604737
:1021400000DF70473F5F0008DFF818C0EFF305833A
:102150001B0618BF6047EFF31483DB0708BF604717
:1021600000DF7047E5600008EFF30980816911F82E
:10217000021C39BB90E80F10E047EFF3098C194BB4
:1021800093E80600914218D059B10CB44FF0010306
:1021900081F826302CE9F00FC1F82CC004F0AAF920
:1021A0000CBC1A60D2F82CC0BCE8F00F92F82630B4
:1021B0008CF309881BB192F82500CCF800006FF071
:1021C000020E704710B5084A1268914209D8074CB0
:1021D00054F8214090E80F10A047EFF3098C8CE8E9
:1021E0000F0010BD680000206C5C00086C5C0008EB
:1021F00004F056F8114B93E8060091421BD00CB442
:102200004FF0000381F82630EFF3098C2CE9F00F32
:10221000C1F82CC004F06EF90CBC1A60D2F82CC0C6
:10222000BCE8F00F8CF3098892F826301BB192F8C5
:102230002530CCF800306FF0020E704768000020A7
:1022400004F02AFAD6E7000003F078FE04F024FA3E
:10225000D0E700000CB50020019000906B480068AA
:1022600040F480306949086000BF6848006800F4A5
:10227000003000900198401C0190009818B9019816
:10228000B0F5A06FF1D16148006810F4003F02D0B2
:102290000120009001E0002000900098012842D128
:1022A0005B48006840F01000594908600846006823
:1022B00020F0030008600846006840F00200086053
:1022C000524840685149486008464068486008469E
:1022D000406840F4806048600846406820F47C1004
:1022E00048600846406840F4E810486008460068C6
:1022F00040F08070086000BF4448006810F0007F24
:10230000FAD04248406820F003004049486008463F
:10231000406840F00200486000BF3C48406800F060
:102320000C000828F9D10CBD10B5FFF793FF10BDC4
:1023300010B53648006840F001003449086008468E
:1023400040683449084031494860084600683249CD
:1023500008402E4908600846006820F48020086084
:102360000846406820F4FE0048604FF41F00886073
:10237000FFF7DAFF29482A49086010BD10B500218F
:1023800000200022214B5B6803F00C0121B10429DD
:1023900006D0082928D107E0224B234C236027E0F0
:1023A000224B214C236023E0184B5B6803F4701030
:1023B000164B5B6803F48032022303EB904022B992
:1023C0001B4B4343184C23600DE0104B5B6813F428
:1023D000003F04D0174B4343134C236003E0134BDF
:1023E0004343114C236003E00E4B0F4C236000BFAE
:1023F00000BF064B5B68C3F303130F4CE15C0A4B51
:102400001B68CB40084C236010BD00000010024048
:10241000002002400000FFF8FFFFF6FE0020000849
:1024200008ED00E000127A0000000020001BB70059
:1024300000093D00808D5B000400002000BFFEE726
:10244000704700BFFEE70000064880470648004787
:10245000FEE7FEE7FEE7FEE7FEE7FEE7FEE7FEE754
:10246000FEE7FEE731230008ED2000083149014373
:10247000314A1160704770B5002100230F22C478E3
:102480000CB32D4C246804F4E064C4F5E064210A24
:10249000C1F10403CA40447804FA03F1847814407B
:1024A00021430901254C0678A155047804F01F0545
:1024B0000124AC4005786D114FF0E02606EB850550
:1024C000C5F8004109E0047804F01F050124AC4080
:1024D0001B4D0678761145F8264070BD194A0A4012
:1024E0000243154B1B1F1A60704739B1124A121D67
:1024F00012680243104B1B1D1A6006E00E4A121DA3
:10250000126882430C4B1B1D1A607047042808D1C7
:102510004FF0E021096941F004014FF0E022116120
:1025200007E04FF0E021096921F004014FF0E022BB
:10253000116170470000FA050CED00E000E400E0D6
:1025400080E100E080FFFF1F01460020FE4A106886
:1025500000F03800084310607047FB49096821F01B
:102560000801F94A1160114609680143116070477A
:10257000F549096821F01001F34A11601146096814
:10258000014311607047F148EF494860F0484860E6
:102590007047EE48EC494860ED4848607047EA48AB
:1025A000006940F08000E84908617047E64800692A
:1025B00040F08000E449086170470420E249C9689E
:1025C00011F0010F01D001200EE0DF49C96811F0C0
:1025D000040F01D0022007E0DB49C96811F0100F99
:1025E00001D0032000E00420704700B50246042318
:1025F000FFF7E3FF034603E0FFF7DFFF0346521E4A
:10260000012B01D1002AF7D102B90523184600BDDC
:1026100030B5044604254FF43020FFF7E6FF0546A9
:10262000042D17D1C848006940F00200C64908616E
:1026300008464461006940F0400008614FF43020D2
:10264000FFF7D3FF0546C048006941F6FD71084019
:10265000BD490861284630BD10B504244FF4302030
:10266000FFF7C3FF0446042C16D1B748006940F0B9
:102670000400B54908610846006940F0400008615F
:102680004FF43020FFF7B1FF0446AF48006941F630
:10269000FB710840AC490861204610BD00B50246F8
:1026A0000423FFF78AFF034603E0FFF786FF034694
:1026B000521E012B01D1002AF7D102B90523184679
:1026C00000BD10B504244FF43020FFF7E7FF0446A7
:1026D000042C16D19C48006940F004009A49086116
:1026E0000846006940F0400008614FF43020FFF7D1
:1026F000D5FF04469448006941F6FB7108409249B1
:102700000861204610BD00208F49C96911F0020FF1
:1027100001D0012000E00020704730B5A525042439
:10272000FFF7F1FF00B100254FF43020FFF75DFF08
:102730000446042C3AD185488349886084488860DF
:102740000846006940F0200008610846006940F032
:10275000400008614FF43020FFF747FF0446042C87
:102760001BD17948006941F6DF710840764908615C
:102770000846006940F01000086176480580E002D4
:10278000FFF733FF0446052C10D06F48006941F66F
:10279000EF7108406C49086108E0052C06D06A48D2
:1027A000006941F6EF71084067490861204630BD75
:1027B00078B506460C46042500200090E802FFF795
:1027C00014FF0546042D24D15F48006940F0010044
:1027D0005D4908613480E802FFF707FF0546042DD4
:1027E00010D1B01C0090200C00990880E802FFF77F
:1027F000FCFE05465448006941F6FE710840524906
:10280000086106E05048006941F6FE7108404E49F3
:102810000861284678BD70B504460D460426F002CE
:10282000FFF7E3FE0646042E11D14748006940F049
:102830000100454908612580F002FFF7D6FE0646F3
:102840004148006941F6FE7108403F490861304641
:1028500070BD70B505460E460424E002FFF7C5FEC4
:102860000446042C17D139483749886038488860B5
:102870000846006940F0100008612E80E002FFF772
:10288000B4FE0446052C06D02F48006941F6EF71CE
:1028900008402D490861204670BD2DE9F0430446EB
:1028A0004FF6FF763746B046B1460425E443E6B21C
:1028B000C4F30727C4F307484FEA1469E802FFF797
:1028C00094FE0546042D49D120481F4988602048C0
:1028D00088600846006940F010000861FF2E06D0AD
:1028E0001C4808300680E802FFF77FFE0546042DED
:1028F00008D1FF2F06D017480A300780E802FFF7FB
:1029000074FE0546042D0AD1B8F1FF0F07D0114817
:102910000C30A0F80080E802FFF767FE0546042DA2
:102920000AD1B9F1FF0F07D00A480E30A0F8009085
:10293000E802FFF75AFE0546052D0FD00248006950
:1029400041F6EF71084007E000200240230167458F
:10295000AB89EFCD00F8FF1F664908612846BDE846
:10296000F08330B5054604244FF43020FFF73DFED8
:102970000446042C41D160485E4988605F48886005
:102980000846006940F0200008610846006940F0F0
:10299000400008614FF43020FFF727FE0446042C66
:1029A00022D15448006941F6DF710840514908615D
:1029B0000846006940F0100008611DB10020504930
:1029C000088002E0A5204E4908804FF43020FFF730
:1029D0000CFE0446052C10D04648006941F6EF7104
:1029E00008404449086108E0052C06D041480069C8
:1029F00041F6DF7108403F490861204630BDF0B51F
:102A000005460E46174604243B483A4988603B4831
:102A10008860E002FFF7E9FD0446042C19D135482F
:102A2000006940F010003349086147F0F800304376
:102A300028433349891C0880E002FFF7D6FD04468D
:102A4000052C06D02B48006941F6EF710840294952
:102A500008612046F0BD2748C069800870472548B6
:102A6000006A704700202349096811F0200F01D047
:102A7000012000E00020704729B11E4A126902437C
:102A80001C4B1A6104E01B4A12698243194B1A61FC
:102A9000704701460020012908D1164AD26912F078
:102AA000010F01D0012008E0002006E0114AD268A1
:102AB0000A4201D0012000E0002070470D49C860A3
:102AC000704704200B49C96811F0010F01D00120A3
:102AD0000EE00849C96811F0040F01D0022007E098
:102AE0000449C96811F0100F01D0032000E0042050
:102AF000704700000020024023016745AB89EFCDFD
:102B000000F8FF1F10B50446CA48844208D10121CD
:102B1000042000F027FB0021042000F023FB46E006
:102B2000C548844208D10121082000F01BFB002188
:102B3000082000F017FB3AE0C048844208D1012188
:102B4000102000F00FFB0021102000F00BFB2EE006
:102B5000BB48844208D10121202000F003FB002162
:102B6000202000F0FFFA22E0B648844208D101217B
:102B7000402000F0F7FA0021402000F0F3FA16E0C0
:102B8000B148844208D10121802000F0EBFA0021F5
:102B9000802000F0E7FA0AE0AC48844207D1012126
:102BA000801500F0DFFA0021A01500F0DBFA10BD5F
:102BB00010B50121084600F0D5FA0021012000F0EF
:102BC000D1FA10BD2DE9F041024600250026002073
:102BD00000230024002791F803C00CF00F0591F8A2
:102BE00003C01CF0100F03D091F802C04CEA050599
:102BF00091F800C0BCF1000F31D0146800202BE028
:102C00004FF0010C0CFA00F3B1F800C00CEA030617
:102C10009E4220D183004FF00F0C0CFA03F7BC4307
:102C200005FA03FC4CEA040491F803C0BCF1280F38
:102C300006D14FF0010C0CFA00FCC2F814C00AE0F7
:102C400091F803C0BCF1480F05D14FF0010C0CFA0C
:102C500000FCC2F810C0401C0828D1D31460B1F8A1
:102C600000C0BCF1FF0F34DD546800202EE000F1FD
:102C7000080C4FF0010808FA0CF3B1F800C00CEA98
:102C800003069E4221D183004FF00F0C0CFA03F78C
:102C9000BC4305FA03FC4CEA040491F803C0BCF100
:102CA000280F05D100F1080C08FA0CF8C2F81480BE
:102CB00091F803C0BCF1480F07D100F1080C4FF0A8
:102CC000010808FA0CF8C2F81080401C0828CED37E
:102CD0005460BDE8F0814FF6FF71018002218170E0
:102CE0000421C17070470246002093680B4201D056
:102CF000012000E0002070470146886880B27047DC
:102D000002460020D3680B4201D0012000E00020E1
:102D100070470146C86880B27047016170474161E1
:102D200070470AB1016100E041617047C1607047BE
:102D30004FF480320A4382618161826182698269D3
:102D4000704702460020424B18684FF680731840C7
:102D500040EA021008433E4B186070473D49C86185
:102D60007047F0B50A46002300240021002500F03A
:102D70000046B6F1004F02D1354EF16901E0344E04
:102D80007168C0F3034583B200F44016B6F5401FE6
:102D900008D121F070612E4E766826F070662C4FB7
:102DA0007E6012E000F48016B6F5801F06D103267F
:102DB00006FA05F4A14341F0706106E0460D3601C4
:102DC00003FA06F6B14341F0706122B1460D3601B7
:102DD00003FA06F6314300F00046B6F1004F02D187
:102DE0001B4EF16101E01A4E7160F0BD30B500225A
:102DF0008B071C0F0F2303FA04F2154B08338C10BA
:102E000053F824309343124C08348D1044F8253085
:102E100023468C1053F824308C07240F00FA04F456
:102E200023430B4C08348D1044F8253030BD0A493B
:102E30000860704700080140000C0140001001408C
:102E40000014014000180140001C01400020014016
:102E50000000014000002042DC002042DD48006804
:102E600040F00100DB49086008464068DA49084044
:102E7000D849486008460068D8490840D5490860E4
:102E80000846006820F4802008600846406820F466
:102E9000FE0048604FF41F0088607047CD49096804
:102EA00021F48031CB4A11601146096821F4802158
:102EB0001160B0F5803F03D0B0F5802F0ED106E051
:102EC000C449096841F48031C24A116007E0C14930
:102ED000096841F4A021BF4A116000E000BF00BFB3
:102EE000704710B501460022002300204A11012A34
:102EF00002D1B84C236806E0022A02D1B54C236AFD
:102F000001E0B44C636A01F01F02012494401C42AA
:102F100001D0012000E0002010BD38B50020009055
:102F20000024002500BF3120FFF7DBFF0546009895
:102F3000401C00900098B0F5A06F01D0002DF2D099
:102F40003120FFF7CEFF08B1012400E00024204625
:102F500038BD014600209F4A106820F0F80040EA82
:102F6000C100106070479E4908607047024600200B
:102F7000984B586820F47C1042EA01031843954BA3
:102F80005860704796490866704701460020914A8C
:102F9000506820F003000843506070478D48406837
:102FA00000F00C007047014600208A4A506820F06B
:102FB000F00008435060704701460020854A506881
:102FC00020F4E06008435060704701460020814AC9
:102FD000506820F4605040EAC1005060704729B149
:102FE0007C4A527A02437B4B5A7204E0794A527A05
:102FF0008243784B5A7270477A490860704701469D
:103000000020744A506820F44040084350607047E4
:103010000021754A11706F4A82F82010012802D0F1
:10302000042808D103E001216F4A117004E0052152
:103030006D4A117000E000BF00BF70476B49086027
:1030400070476449096A0143624A116270476749DF
:1030500044390860704730B5002100220024002365
:103060005C4D6D6805F00C0121B1042905D00829DB
:1030700023D105E05E4D056022E05E4D05601FE056
:10308000544D6D6805F47012524D6D6805F480342E
:10309000022505EB92421CB9574D554305600BE0E4
:1030A0004C4D6D6815F4003F03D0544D55430560F9
:1030B00002E0504D5543056002E04D4D056000BFF4
:1030C00000BF444D6D6805F0F00109094C4D6B5C83
:1030D0000568DD4045603F4D6D6805F4E061090A13
:1030E000474D6B5C4568DD4085603A4D6D6805F481
:1030F0006051C90A424D6B5C4568DD40C560354D85
:103100006D6805F44041890B3E4D6B5CC568B5FBAD
:10311000F3F5056130BD29B12E4A526902432D4BAA
:103120005A6104E02B4A526982432A4B5A61704724
:1031300029B1284A92690243264B9A6104E0254A44
:1031400092698243234B9A61704729B1214AD2691F
:103150000243204BDA6104E01E4AD26982431D4BD0
:10316000DA61704729B11B4AD2680243194BDA6011
:1031700004E0184AD2688243164BDA60704729B1DE
:10318000144A12690243134B1A6104E0114A12698E
:103190008243104B1A6170471449403908607047E8
:1031A0000F49C86470470B49C87170470948406AA5
:1031B00040F0807007494862704701460020054A88
:1031C00092680A4201D0012000E0002070470149C6
:1031D00088727047001002400000FFF8FFFFF6FE03
:1031E00000004242D8004242201002408004424285
:1031F00000127A00001BB70000093D00808D5B00C3
:10320000180000202800002010B50446BE48844263
:1032100008D101218014FFF7A5FF0021A014FFF7BA
:10322000A1FF16E0B948844208D101210014FFF73C
:10323000A6FF00212014FFF7A2FF0AE0B448844251
:1032400007D10121C013FFF79AFF0021E013FFF718
:1032500096FF10BD10B50022028802F441520B887F
:103260004C8823438C882343CC8823430C892343F5
:103270004C8923438C892343CC8923431A430280FE
:10328000838B4FF2FF74234083830B8A038210BD2C
:103290002DE9F04F85B005460C464FF00009022796
:1032A0004FF000084FF0010B0026B246A88B4FF2FA
:1032B00040010840A88302202884B5F81C90A0682B
:1032C000022801D100BF38E0A08810B94FF0010BEF
:1032D00001E04FF0020B8D48854200D100E000BFB5
:1032E0006846FFF7B8FEDDF800A0E088B0F5007F83
:1032F0000AD14FEA1A2000EB80004000A168B0FB21
:10330000F1F0401D86B20BE04FEA4B10BAFBF0F033
:1033100000EB80004000A168B0FBF1F0401D86B2D8
:103320000A20B6FBF0F606F00108A6EB0800C0F391
:103330004F074FF6FF7000EA0828022F01DBFF2F2E
:1033400002DD02274FF00008E08840EA0800384319
:103350002884A088A18908436188084321880843FC
:1033600040F4006040EA0909A5F81C9005B0BDE8EA
:10337000F08F0021018041808180C18001814181E5
:103380008181C18107210182704700210180418034
:103390008180C1800221816000218181704721B13B
:1033A000028842F04002028004E002884FF6BF73B8
:1033B0001A400280704721B1828B42F4806282837E
:1033C00004E0828B4FF6FF331A408283704730B59A
:1033D000002400230C110125A540ABB21AB1858849
:1033E0001D43858002E085889D43858030BD1AB1EC
:1033F00083880B43838002E083888B4383807047FC
:1034000081817047014688897047A1F57E42FF3A65
:1034100004D0028842F48072028004E002884FF6F1
:10342000FF631A400280704721B1828842F0040293
:10343000828004E082884FF6FB731A4082807047D6
:1034400002884FF2FF731A40028002880A4302800A
:103450007047018841F480510180704721B1028892
:1034600042F40052028004E002884DF6FF731A40D5
:103470000280704702460020012901D0108B00E035
:10348000908A70470146088A7047B1F5804F04D191
:10349000028842F48042028004E002884BF6FF7307
:1034A0001A40028070470246002013890B4201D067
:1034B000012000E000207047CA4302817047F0B548
:1034C0000246002000240023002501F00F070126FA
:1034D000BE40B4B20B1101269E40B3B2968806EAF4
:1034E00003051689264202D00DB1012000E000201C
:1034F000F0BD10B5002201F00F040123A3409AB2E1
:10350000D343038110BD000000300140003800406B
:10351000003C004010B50446FE48844208D1012119
:10352000C014FFF71FFE0021E014FFF71BFEC4E0EC
:10353000B4F1804F08D101210846FFF720FE002199
:103540000120FFF71CFEB8E0F348844208D10121B6
:103550000220FFF714FE00210220FFF710FEACE06E
:10356000EE48844208D101210420FFF708FE002123
:103570000420FFF704FEA0E0E948844208D10121BD
:103580000820FFF7FCFD00210820FFF7F8FD94E07C
:10359000E448844208D101211020FFF7F0FD00210A
:1035A0001020FFF7ECFD88E0DF48844208D10121BC
:1035B0002020FFF7E4FD00212020FFF7E0FD7CE064
:1035C000DA48844208D101214014FFF7CBFD0021E5
:1035D0006014FFF7C7FD70E0D548844209D101218E
:1035E000C804FFF7BFFD00214FF40020FFF7BAFD2C
:1035F00063E0D048844209D101210805FFF7B2FDFC
:1036000000214FF48010FFF7ADFD56E0CA48844218
:1036100009D101214805FFF7A5FD00214FF4001055
:10362000FFF7A0FD49E0C548844208D101214020B0
:10363000FFF7A5FD00214020FFF7A1FD3DE0C048B8
:10364000844208D101218020FFF799FD00218020CC
:10365000FFF795FD31E0BB48844208D10121801578
:10366000FFF78DFD0021A015FFF789FD25E0B64885
:10367000844209D101210804FFF774FD00214FF4B1
:103680008030FFF76FFD18E0B048844209D1012176
:103690004804FFF767FD00214FF40030FFF762FD9B
:1036A0000BE0AB48844208D101218804FFF75AFDA2
:1036B00000214FF48020FFF755FD10BD0022028845
:1036C000944B98420ED0994B98420BD0B0F1804F5A
:1036D00008D0914B984205D0904B984202D0904B25
:1036E000984204D14FF68F731A404B881A438D4B82
:1036F000984207D08C4B984204D04FF6FF431A40B3
:10370000CB881A4302808B8883850B880385814B85
:1037100098420BD0854B984208D08B4B984205D0ED
:103720008A4B984202D08A4B984201D10B7A038689
:1037300001238382704770B5002400220023058C8A
:103740004FF6FE7635400584028C8388048B4FF655
:103750008F752C40B51E2C400D882C43751E2A40B9
:103760000D892A434D882A436A4DA8420BD06F4DDC
:10377000A84208D0744DA84205D0744DA84202D08A
:10378000734DA84213D14FF6F7752A404D892A434D
:103790004FF6FB752A408D882A434FF6FF652B4074
:1037A0004FF6FF552B408D892B43CD892B438380CA
:1037B0000483CD888586028470BD70B50024002204
:1037C0000023058C4FF6EF7635400584028C838804
:1037D000048B48F6FF752C404FF6FF452C400D88B2
:1037E0004FF6FF7606EA05252C434FF6DF752A4093
:1037F0000D8906EA05152A434D8806EA05152A4370
:10380000444DA84202D0494DA8421DD14FF67F75C4
:103810002A404D894FF6FF7606EA05152A434FF6F2
:10382000BF752A408D8806EA05152A434FF6FF35F5
:103830002B404FF2FF752B408D8906EA85052B43FF
:10384000CD8906EA85052B4383800483CD880587CF
:10385000028470BD70B5002400220023058C4FF651
:10386000FF6635400584028C8388848B4FF68F7504
:103870002C404FF6FC752C400D882C434FF6FF551D
:103880002A400D894FF6FF7606EA05252A434D8822
:1038900006EA05252A431F4DA84202D0234DA8421F
:1038A0001DD14FF2FF752A404D894FF6FF7606EA8B
:1038B00005252A434FF6FF352A408D8806EA05255F
:1038C0002A434EF6FF752B404DF6FF752B408D8930
:1038D00006EA05152B43CD8906EA05152B4383809F
:1038E0008483CD888587028470BD70B50022002353
:1038F0000024058C4EF6FF7635400584038C8488C1
:10390000828B48F6FF752A404FF6FF452A400D8806
:1039100020E00000002C01400004004000080040AE
:10392000000C004000100040001400400034014032
:10393000004C01400050014000540140001800407C
:10394000001C0040002000400040014000440140B5
:10395000004801404FF6FF7606EA05252A434DF65A
:10396000FF752B400D8906EA05352B434D8806EA85
:1039700005352B43FA4DA84202D0FA4DA84208D192
:103980004BF6FF752C408D894FF6FF7606EA8515BC
:103990002C4384808283CD88A0F84050038470BD7E
:1039A000828B4FF2FF331A408283828B4FF6FF7374
:1039B00003EA01231A4382837047F0B50C4615468B
:1039C000002200210026078C4EF6FF7C07EA0C0738
:1039D0000784828B018C4FF6FF7707EA043640F6A6
:1039E000FF473A404FF6FF7707EA05273A434FF67D
:1039F000FF7707EA03373A43D94FB8420ED0D94F81
:103A0000B8420BD0B0F1804F08D0D74FB84205D0A4
:103A1000D64FB84202D0D64FB84206D14DF6FF7706
:103A2000394046F48057394305E047F6FF5739409F
:103A300044F48057394382830184F0BD828B4FF672
:103A4000F3731A408283828B0A4382837047F0B5F6
:103A50000C461546002200210026078C4FF6FF6C0D
:103A600007EA0C070784828B018C4FF6FF7707EA81
:103A700004264FF60C773A404FF6FF7707EA031714
:103A80002F433A43B64FB8420ED0B64FB8420BD090
:103A9000B0F1804F08D0B44FB84205D0B34FB84210
:103AA00002D0B34FB84206D14FF6FF57394046F423
:103AB0008077394305E04FF2FF57394044F480776F
:103AC000394382830184F0BD028B4FF2FF331A40E9
:103AD0000283028B4FF6FF7303EA01231A4302832A
:103AE0007047F0B50C461546002200210026078CD1
:103AF0004FF6EF7C07EA0C070784028B018C4FF628
:103B0000FF7707EA041640F6FF473A404FF6FF7783
:103B100007EA03373A434FF6FF7707EA05273A43A8
:103B20008F4FB8420ED08F4FB8420BD0B0F1804FBC
:103B300008D08D4FB84205D08C4FB84202D08C4F80
:103B4000B84206D14FF6DF77394046F010073943C7
:103B500005E04FF65F77394044F0100739430283A0
:103B60000184F0BD028B4FF6F3731A400283028B7F
:103B70000A4302837047F0B50C4615460022002127
:103B8000068C4FF6FE773E400684028B018C4FF682
:103B90000C7632407E1C06EA03162E433243704EEA
:103BA000B0420ED06F4EB0420BD0B0F1804F08D073
:103BB0006D4EB04205D06D4EB04202D06C4EB04258
:103BC00006D14FF6FD76314044F00106314305E061
:103BD0004FF6F576314044F001063143028301840B
:103BE000F0BD70B505460C465D4885420ED05D4877
:103BF00085420BD0B5F1804F08D05B48854205D097
:103C00005A48854202D05A48854200D100E000BFA0
:103C1000208850B92389A28861882846FFF7ABFF26
:103C2000E1882846FFF79EFF25E0208804280AD176
:103C30002389A28861882846FFF753FFE188284638
:103C4000FFF742FF17E0208808280AD12389A288BD
:103C500061882846FFF7FBFEE1882846FFF7EEFE65
:103C600009E02389A28861882846FFF7A6FEE1883B
:103C70002846FFF795FE70BD2DE9F04105460C463C
:103C800000260127608808B9022600E00026A088E7
:103C9000012801D1022700E001272088A0B923894B
:103CA000A28861882846FFF766FFE1882846FFF76B
:103CB00059FF23893A4631462846FFF712FFE1882B
:103CC0002846FFF701FF13E02389A2886188284670
:103CD000FFF707FFE1882846FFF7F6FE23893A46FB
:103CE00031462846FFF747FFE1882846FFF73AFFAD
:103CF000BDE8F0810A884B881A438B881A43CB8829
:103D00001A430B891A434B891A438B891A43A0F82B
:103D1000442070474FF6FF71818000210180C180EF
:103D20004180017270470021018041808180C18003
:103D3000018141818181C1817047002101804180E1
:103D4000012181800021C180018170470021018013
:103D500041808180C1800181418181817047000063
:103D6000002C0140003401400004004000080040E5
:103D7000000C004021B1028842F00102028004E000
:103D800002884FF6FE731A400280704731B1B0F8D6
:103D9000442042F40042A0F8442005E0B0F844205A
:103DA000C2F30E02A0F8442070471AB183890B4376
:103DB000838102E083898B438381704781827047CE
:103DC00041EA0203A0F8483070471AB183890B43D7
:103DD000838102E083898B438381704701894FF699
:103DE000F8721140018170470A46002101894FF69F
:103DF0008F73194011430181704730B504460D4659
:103E000029462046FFF7F0FF208940F00700208177
:103E100030BD2DE9F04104460D4616461F46602D83
:103E200006D13B46012231462046FFF75AFE05E007
:103E30003B46012231462046FFF79DFE294620469B
:103E4000FFF7D2FF208940F007002081BDE8F08114
:103E500030B50C4600210189C9B24FF6FF7505EA5D
:103E60000325154325432943018130BD2DE9F04148
:103E700005460E4617469846002443463A463146C4
:103E80002846FFF7E5FF2C894FF6F870044044F010
:103E900007044FF68F70044044F070042C81BDE895
:103EA000F081F0B504460D4616461F463B463246A5
:103EB00029462046FFF7CCFF208940F4804020812E
:103EC000F0BD0185828270470A46002101884FF6C5
:103ED0008F731940114301807047F0B50C461546A9
:103EE0001E460021002200230189028B038C4FF61D
:103EF000F877394021434FF6FC473A4040F201172A
:103F00003A434FF6DD773B404FF6FF7707EA061757
:103F10002F433B43018102830384F0BD0A46002105
:103F2000018B4FF68F7319401143018370470A4686
:103F30000021018B48F6FF7319404FF6FF7303EA27
:103F400002231943018370470A460021818B4FF6F3
:103F50008F7319401143818370470A460021818B7A
:103F600048F6FF7319404FF6FF7303EA0223194323
:103F70008183704721B1028842F08002028004E010
:103F800002884FF67F731A400280704721B1828801
:103F900042F00402828004E082884FF6FB731A40EC
:103FA0008280704721B1828842F00802828004E05A
:103FB00082884FF6F7731A408280704721B1828859
:103FC00042F00102828004E082884FF6FE731A40BC
:103FD000828070470A460021018B4FF6F773194023
:103FE0001143018370470A460021018B4FF2FF7392
:103FF00019404FF6FF7303EA022319430183704708
:104000000A460021818B4FF6F773194011438183D3
:1040100070470A460021818B4FF2FF7319404FF61B
:10402000FF7303EA02231943818370470A46002184
:10403000018B4FF6FB7319401143018370470A4609
:104040000021018B4FF6FF3319404FF6FF7303EA4F
:1040500002231943018370470A460021818B4FF6E2
:10406000FB7319401143818370470A460021818BFD
:104070004FF6FF3319404FF6FF7303EA022319434B
:10408000818370470A460021018B4FF67F731940E8
:104090001143018370470A460021018BC1F30E01D1
:1040A0004FF6FF7303EA02231943018370470A4660
:1040B0000021818B4FF67F73194011438183704734
:1040C0000A460021818BC1F30E014FF6FF7303EA0C
:1040D00002231943818370470A460021018C4FF661
:1040E000FD7319401143018470470A460021018C79
:1040F0004FF6F77319401143018470470A460021B7
:10410000018C4FF6DF7319404FF6FF7303EA021379
:104110001943018470470A460021018C4FF67F73D2
:1041200019404FF6FF7303EA0213194301847047E5
:104130000A460021018C4FF6FF5319404FF6FF73DA
:1041400003EA02231943018470470A460021018CC7
:104150004FF2FF7319404FF6FF7303EA022319432E
:10416000018470470A460021018C4DF6FF73194007
:104170004FF6FF7303EA023319430184704730B5E9
:10418000002301248C40A3B2048C9C430484048C3F
:1041900002FA01F5ADB22C43048430BD30B50023E2
:1041A00004248C40A3B2048C9C430484048C02FA43
:1041B00001F5ADB22C43048430BD70B50346002038
:1041C00000241846183001258D40ACB21D8CA54343
:1041D0001D8409B1082909D100EB6100056825F0AB
:1041E000700505600568154305600EE00D1FC5F3F9
:1041F0004E052844056825F4E045056005684FF63E
:10420000FF7606EA02263543056070BD21B10288BB
:1042100042F00202028004E002884FF6FD731A4069
:104220000280704721B1028842F00402028004E05B
:1042300002884FF6FB731A400280704721B18288D2
:1042400042F08002828004E082884FF67F731A4039
:104250008280704702884FF6F7731A400280028806
:104260000A430280704782884FF68F731A4082801B
:1042700082880A438280704702894FF6F8731A4099
:10428000028102890A430281704702894FF67F73D7
:104290001A40028102890A43028170478184704773
:1042A0008185704781867047018770478187704795
:1042B000A0F84010704702884FF6FF431A40028072
:1042C00002880A43028070470146888E7047014683
:1042D000088F70470146888F70470146B1F840004B
:1042E00070470146888C70470146088D704702462A
:1042F0000020138A0B4201D0012000E0002070470B
:10430000CA430282704730B50246002000230024D1
:10431000158A05EA0103958905EA010413B10CB178
:10432000012000E0002030BDCA4302827047000037
:1043300010B50446FB48844209D101218803FEF7E9
:1043400011FF00214FF48040FEF70CFF32E0F648E9
:10435000844209D101214804FEF711FF00214FF4E6
:104360000030FEF70CFF25E0F048844209D101211E
:104370008804FEF704FF00214FF48020FEF7FFFEC3
:1043800018E0EB48844209D10121C804FEF7F7FE8A
:1043900000214FF40020FEF7F2FE0BE0E5488442D6
:1043A00008D101210805FEF7EAFE00214FF4801034
:1043B000FEF7E5FE10BD2DE9F04786B005460E4636
:1043C0000024A24600BFA1460027B08900B100BF6B
:1043D0002F462C8A4CF6FF700440F08804432C8250
:1043E000AC894EF6F3100440B088318908437189D6
:1043F00008430443AC81AC8A4FF6FF400440B089C7
:104400000443AC8201A8FEF726FEC648874202D1CB
:10441000DDF810A001E0DDF80CA0A88910F4004F31
:1044200008D00AEBCA0000EB0A1031684900B0FB63
:10443000F1F807E00AEBCA0000EB0A1031688900C6
:10444000B0FBF1F86420B8FBF0F00401200964210E
:1044500001FB1089A88910F4004F08D0322000EB2E
:10446000C900B0FBF1F000F00700044308E032207F
:1044700000EB09106421B0FBF1F000F00F000443E1
:104480002C8106B0BDE8F0874FF416510160002181
:104490008180C18001810C2141810021818170478F
:1044A00010B502460020108A4FF2FF0318400B8817
:1044B0004C8823438C882343CC88234318431082A1
:1044C00010BD0021018041808180C180704721B1F1
:1044D000828942F40052828104E082894DF6FF73A2
:1044E0001A4082817047F0B503460024002600255B
:1044F0000020A1F510676A3F00D100BF1846C1F344
:10450000421401F01F06012707FA06F5012C01D11C
:104510000C3004E0022C01D1103000E014301AB14C
:1045200007682F43076002E00768AF430760F0BDEC
:104530001AB1838A0B43838202E0838A8B4383828E
:104540007047028A4FF6F0731A400282028A0A43C9
:104550000282704782894FF2FF731A4082818289FA
:104560000A438281704721B1828942F0020282812E
:1045700004E082894FF6FD731A4082817047028AF7
:104580004FF6DF731A400282028A0A4302827047A2
:1045900021B1028A42F48042028204E0028A4BF690
:1045A000FF731A4002827047C1F30802828070478D
:1045B00001468888C0F308007047818941F00101F5
:1045C00081817047028BD2B20283028B42EA0122C0
:1045D00002837047028B02F47F420283028B0A43FC
:1045E0000283704721B1828A42F02002828204E075
:1045F000828A4FF6DF731A408282704721B1828A25
:1046000042F01002828204E0828A4FF6EF731A4071
:104610008282704721B1828A42F00802828204E0DD
:10462000828A4FF6F7731A408282704721B18289DD
:1046300042F40042828103E08289C2F30E02828149
:10464000704721B1828A42F40062828204E0828A49
:104650004FF2FF731A4082827047828A4FF6FB73D3
:104660001A408282828A0A438282704721B1828AFA
:1046700042F00202828204E0828A4FF6FD731A4001
:104680008282704702460020B1F5007F00D100BF52
:1046900013880B4201D0012000E00020704701F494
:1046A0000072B2F5007F00D100BFCA43028070479C
:1046B00070B502460024002300250020A1F51066F5
:1046C0006A3E00D100BFC1F3421501F01F0301266D
:1046D00006FA03F3012D02D19689334006E0022D3C
:1046E00002D1168A334001E0968A33400C1201262B
:1046F00006FA04F41688344013B10CB1012000E02E
:10470000002070BD10B500220023A1F510646A3CA2
:1047100000D100BF0A1201249440A3B2DC430480FC
:1047200010BD000000380140004400400048004037
:10473000004C00400050004010B500F07FFA00F03F
:104740001AFC00F0B5FA00F0E7FA354800F022FB59
:1047500000F091FC10BD2DE9F0478AB005460E46E9
:10476000904628222FA1684601F010FA34464FF0F7
:10477000000A45B9302004F8010B002020703046B3
:104780000AB0BDE8F087002D05DA2D2004F8010BF2
:104790006D424FF0010A09E095FBF8F008FB10505C
:1047A0001DF8000004F8010B95FBF8F5002DF3D17E
:1047B00000202070BAF1000F01D0701C00E03046DC
:1047C0000746641E07E097F800902078387084F858
:1047D00000907F1C641EA742F5D33046D0E770B529
:1047E00004460D46E1B21948FFF7DEFE00BF402146
:1047F0001648FFF747FF0028F9D0204670BD71B674
:1048000000BF1348006800F4E06012490843001D2F
:104810000F490860BFF3408F00BF00BFFEE70000F4
:104820000030014030313233343536373839414287
:10483000434445464748494A4B4C4D4E4F505152D0
:10484000535455565758595A00000000003801403B
:104850000CED00E00000FA0570B504460D4640215D
:104860002046FFF71CFF29462046FFF79DFE00BFAC
:1048700040212046FFF706FF0028F9D040212046BE
:10488000FFF70DFF70BD10B504460D212046FFF760
:10489000E3FF0A212046FFF7DFFF10BD2DE9F041BD
:1048A00007460D461646002404E0295D3846FFF70A
:1048B000D3FF641CB442F8DBBDE8F0812DE9F04180
:1048C00006460C46204601F085F9471E002504E007
:1048D000615D3046FFF7C0FF6D1CBD42F8DB605DD7
:1048E00018B93046FFF7CFFF06E0615D3046FFF7AD
:1048F000B3FF3046FFF7C7FFBDE8F0812DE9F04177
:1049000007460E461546132D00DC05B9142503E0B5
:104910000120DFF894C100DF644800686428F7D301
:1049200000216348FFF726FA002060490860002450
:1049300004E06048005D3055601CC4B2AC42F8DB56
:1049400014215C4801F03BF900205B4908703046B7
:10495000BDE8F0812DE9F04107460E461546642D6D
:1049600000DC05B9642503E00120DFF83CC100DF6D
:10497000524800686428F7D300215148FFF7FAF93C
:1049800000204E490860002404E04E48005D305588
:10499000601CC4B2AC42F8DB64214A4801F00FF954
:1049A0000020494908703046BDE8F08170B50446E2
:1049B0000D46FDF7EEFD3420FEF780F84348FDF785
:1049C00027FE4349087008460078042806D13F496D
:1049D00060182946FDF7ECFE3D490870FDF7E6FD3D
:1049E00070BD10B503460020384C234403E013F893
:1049F000014B0C54401C9042F9DB10BD2DE9F041F5
:104A000005460E460024002724223249284601F09C
:104A1000E8F818B910213048FEF781F906E0601C6B
:104A2000C4B2C82C02DD0020BDE8F0810221284676
:104A3000FEF739FD0028F2D031462846FEF7E0FCAB
:104A4000002405E0601CC4B2C82C01DD0020EBE7A7
:104A500001212846FEF727FD0028F3D02846FEF75F
:104A6000D1FC074624221B49284601F0BAF818B9A0
:104A700010211948FEF751F93846D5E72DE9F041E4
:104A800080460D4616461F46002408E035F81410EF
:104A90004046FFF7B3FF27F81400601CC4B2B442CD
:104AA000F4DBBDE8F0810000916000082C000020DC
:104AB000000400409C18002040000020300000202E
:104AC00000080040B01800204100002000F000085D
:104AD000340000200030014000080140704700BF52
:104AE000FEE700BFFEE700BFFEE700BFFEE770473E
:104AF00010B540F225513E48FFF7DAFD012816D1E6
:104B000000213C48FFF736F900203B49086038484F
:104B1000FFF74EFD39493A4A1278885438480078F0
:104B2000401C3749087001213248FFF723F910BDB6
:104B300010B500213348FFF71DF900203249086005
:104B400040F225513148FFF7B3FD01281BD12F4812
:104B5000FFF72EFD2E492F4A127888542D480078F1
:104B6000401E085C0D2809D108462A490978405C96
:104B70000A2803D14FF47A70234908602548007849
:104B8000401C2449087001211E48FFF7F3F810BDAE
:104B900010B501218807FFF7AAFB40B11E48006845
:104BA000401C1D49086001218807FFF7A9FB10BDC3
:104BB00010B501210F48FFF79AFB40B10E4800687D
:104BC000401C0D49086001210A48FFF799FB10BD00
:104BD00010B501210B48FFF78AFB40B10A48006875
:104BE000401C0949086001210648FFF789FB10BDF8
:104BF00000380140000400402C0000209C180020D8
:104C00004000002000080040300000200044004028
:104C1000B01800204100002038000020FFF78CFD74
:104C2000FDF774FA002211460248DFF80CC000DFDD
:104C300000BFFEE7815700084165000810B5FEF788
:104C40000DF94FF48030FEF729F9FEF766F90446B6
:104C5000012C23D10020FEF7A6F90020FEF7B5F9BC
:104C6000A002FEF7A9F90220FDF76EFC1020FDF767
:104C70007FFC21050811FEF779F90120FEF782F982
:104C800000BF3920FEF72DF90028FAD00220FEF7E8
:104C90007CF900BFFEF782F90828FBD1012145F21B
:104CA0001D00FEF745FA0121C648FEF74EFA10BD79
:104CB00008B54FF40070ADF8000003208DF8020035
:104CC00018208DF803006946BF48FDF77BFF4FF4BD
:104CD0008060ADF8000004208DF803006946BA48F2
:104CE000FDF770FF0420ADF8000003208DF80200EE
:104CF00018208DF803006946B348FDF763FF0820CC
:104D0000ADF8000048208DF803006946AE48FDF775
:104D100059FF00F06FF908BD1FB54FF4E130009066
:104D20000020ADF80400ADF80600ADF808000C2036
:104D3000ADF80A000020ADF80C006946A348FFF763
:104D40003AFB0121A148FFF7C2FB012240F22551A5
:104D50009E48FFF7C8FB4FF4164000900020ADF8C6
:104D60000400ADF80600ADF808000C20ADF80A000C
:104D70000020ADF80C0069469548FFF71CFB0121A7
:104D80009348FFF7A4FB012240F225519048FFF71A
:104D9000AAFB1FBD10B586B0044624228D492046CB
:104DA00000F01FFF68B9E020ADF8000018208DF872
:104DB000030003208DF8020069468348FDF702FFD7
:104DC00013E024228449204600F00BFF68B94FF419
:104DD0006040ADF8000018208DF8030003208DF826
:104DE000020069467D48FDF7EDFE0020ADF80400A5
:104DF0004FF48270ADF806004FF40060ADF8080083
:104E00000020ADF80A000120ADF80C004002ADF81A
:104E10000E003820ADF810000020ADF81200072079
:104E2000ADF8140001A92046FEF714FA012120462E
:104E3000FEF7B5FA01212046FEF7F6FA242265496D
:104E4000204600F0CEFE60B91020ADF800008DF8CD
:104E5000030003208DF8020069465B48FDF7B2FEAF
:104E600013E024225C49204600F0BBFE68B94FF4F1
:104E70008050ADF8000010208DF8030003208DF85D
:104E8000020069465548FDF79DFE06B010BD38B5D5
:104E900004464FF400518803FDF720FB4FF4E06017
:104EA000FDF7E4FA50229106204600F09AFE18B968
:104EB0001C208DF8000030E050224949204600F0C7
:104EC00090FE18B91D208DF8000026E050224549BB
:104ED000204600F086FE18B91E208DF800001CE068
:104EE00050224149204600F07CFE18B932208DF84E
:104EF000000012E050223D49204600F072FE18B931
:104F000036208DF8000008E050223949204600F094
:104F100068FE10B937208DF8000000208DF80100E0
:104F20008DF8020001208DF803006846FDF7A3FA12
:104F300038BD3EB504462046FFF7A9FF2046FEF7E0
:104F4000E9FA40F26710ADF804001320ADF8000054
:104F50000020ADF80600ADF8020069462046FEF7D5
:104F6000ADFB01212046FFF7CBF901221146204677
:104F7000FEF71BFF3EBD08B54FF400518803FDF757
:104F8000ADFA4FF4E060FDF771FA25208DF80000CE
:104F900000208DF801008DF8020001208DF803003B
:104FA0006846FDF768FA26208DF8000000208DF88D
:104FB00001008DF8020001208DF803006846FDF71E
:104FC0005AFA08BD070002000008014000380140FD
:104FD000004400400030014000380040000C014017
:104FE0000004004000080040000C00400010004099
:104FF0000014004008B541F60F40ADF8000048200D
:105000008DF8030069462248FDF7DCFD0820ADF865
:10501000000048208DF8030069461E48FDF7D2FDC8
:105020004FF47C70ADF8000003208DF802001020D2
:105030008DF8030069461748FDF7C4FD41F61210CC
:10504000ADF8000003208DF8020010208DF8030059
:1050500069461148FDF7B6FD4FF4C8510D48FDF7FC
:105060005EFE02210C48FDF75AFE4FF4007109481C
:10507000FDF753FE08BD10B54FF08040FFF759FF14
:105080000648FFF756FF0648FFF753FF10BD000024
:1050900000100140000C01400008014000040040E5
:1050A0000008004010B504466CA000F0E1FD1CB9FA
:1050B00078A000F0DDFD04E0012C02D17DA000F01D
:1050C000D7FD844800F0D4FD83A000F0D1FD8FA06F
:1050D00000F0CEFD95A000F0CBFD7E48503000F0F2
:1050E000C7FD98A000F0C4FD10BD10B57948C430CC
:1050F00000F0BEFD10BD10B59BA000F0B9FD9FA053
:1051000000F0B6FDA84800F0B3FDA748843000F0D9
:10511000AFFD4FF41670DFF894C200DFA4A000F0DA
:10512000A7FD4FF41670DFF884C200DFAAA000F0DC
:105130009FFD10BD10B5AEA000F09AFDB1A000F02B
:1051400097FDBAA000F094FDC3A000F091FDCFA0A0
:1051500000F08EFDD8A000F08BFDE0A000F088FDEF
:105160004FF4FA60DFF844C200DFE8A000F080FDF1
:1051700010BD10B5EDA000F07BFD4FF41670DFF808
:105180002CC200DFEFA000F073FD4FF41670DFF8C3
:105190001CC200DFF0A000F06BFD4FF41670DFF8CA
:1051A0000CC200DFF1A000F063FD4FF41670DFF8D1
:1051B000FCC100DFFFF723FB10BD10B586B00A204D
:1051C00000F072FE0446142101A800F0F8FC0A2247
:1051D00001A9ED48FFF792FBECA000F049FD01A901
:1051E000E948FFF76BFBE848FFF74DFBEBA000F049
:1051F0003FFD0722EBA101A800F000FD10B9FFF769
:10520000B8FF28E00422E9A101A800F0F7FC18B9D2
:10521000E8A000F02DFD1EE00422EFA101A800F09F
:10522000EDFC10B9FFF786FF15E00822ECA101A8FC
:1052300000F0E4FC10B9FFF75EFF0CE00722EBA1E1
:1052400001A800F0DBFC10B9FFF74FFF03E0564860
:10525000D83000F00DFD06B010BD00000D0A0D0A9B
:10526000202020202020202020202020202020203E
:10527000202020202020202020202020205379734F
:1052800074656D204465736372697074696F6E0D27
:105290000A0000000D0A44656661756C742073682D
:1052A0006F7720746F74616C2076616C7565200D6A
:1052B0000A0D0A000D0A44656661756C74207368F6
:1052C0006F772064657461696C2076616C75652008
:1052D0000D0A0000CC6900080D0A54686973206348
:1052E0006F6D6D616E642073797374656D20646594
:1052F0007369676E20666F7220646562756767699F
:105300006E672073797374656D0D0A000D0A44652C
:105310007369676E6564206279206C756E616E7466
:10532000696E672020202020202000006C756E61AF
:105330006E74696E6740796561682E6E65740D0ADA
:10534000000000000D0ACFB5CDB3D2D1C6F4B6AF80
:10535000B3C9B9A60D0A0D0AC7EBCAE4C8EBD6B8A3
:10536000C1EEA3BA0D0A0000496E646976696475DE
:10537000616C20526573756D650D0A005468697320
:105380002073797374656D20697320646573696730
:105390006E6564206279206C756E616E74696E67EB
:1053A0000D0A0D0A000000000C6B00089160000857
:1053B0000D0AB1BEB9CACAC2B4BFCAF4D0E9B9B9FC
:1053C000A3ACC8E7D3D0C0D7CDACA3ACB4BFCAF4AC
:1053D000B3ADCFAE0D0A00000D0AC7EBCAE4C8EBAF
:1053E000CFB5CDB3B2D9D7F7D6B8C1EE3A0D0A00D2
:1053F000CFD4CABECFB5CDB3C3FCC1EECBB5C3F7D6
:105400000D0A00000D0A312E746F74616C3A5769F1
:105410006C6C2073686F772074686520746F74619A
:105420006C2076616C75653B0D0A00000D0A322E0A
:1054300064657461696C3A57696C6C2073686F7746
:10544000207468652064657461696C2076616C7590
:10545000653B0D0A000000000D0A332E6C696D6972
:105460007475703A596F752063616E20696E70753E
:1054700074207468652073656E736F722075702D6B
:105480006C696D69743B0D0A000000000D0A342E32
:10549000726573746172743A5468652073797374B9
:1054A000656D2077696C6C2062652072657374612C
:1054B00072743B0D0A0000000D0A352E6261636BA9
:1054C0003A476F206261636B206F6E206F6E652DAF
:1054D0007570206C617965723B0D0A000D0A362EDD
:1054E00068656C703A57696C6C2073686F772074CC
:1054F000686520636F6D6D616E64206F66207468EF
:10550000652073797374656D3B0D0A000D0A0D0AF1
:10551000C7EBD1A1D4F1D0E8D2AAB2D9D7F7B5C49C
:10552000D6B8C1EEA3BA0D0A00000000CFB5CDB3C6
:10553000BDABC6F4B6AFD6D8C6F4B2D9D7F70D0A0C
:10554000000000000D0ACFB5CDB3BDABD6D8D0C298
:10555000C6F4B6AF0D0A00000D0ACFB5CDB3D5FD28
:10556000D4DAD6D8C6F40D0A000000000D0AD6D849
:10557000D0C2C6F4B6AFB3C9B9A6A3ACD5FDD4DAD0
:10558000B5C7C2BD0D0A0000003801400D0AD2D1D6
:10559000CAE4C8EBC3FCC1EEA3BA0000CFECD3A6AB
:1055A000A3BA000072657374617274006261636B08
:1055B00000000000D6B8C1EEB4EDCEF30D0AD4ADB4
:1055C000D2F2A3BAD2D1D4DAD7EECDE2C3FCC1EE87
:1055D000B2E30D0A0000000068656C700000000076
:1055E00064657369676E65720000000070726F6AAF
:1055F0006563740001244FF47A70DFF848C100DF5E
:10560000002000F003F9002000F07DFA17E014B14B
:10561000012C13D108E00124012000F011F93220FF
:10562000DFF820C100DF09E00024002000F008F9C5
:1056300040F29E70DFF80CC100DF00BF00BFE6E75C
:105640001FB500250020029003900090019025E0F6
:10565000694602A800F00EF9002416E01DF80400C7
:10566000012810D174B91DB900F04DFA012505E0EB
:10567000012D03D1002000F046FA0025012000F0A2
:105680006DF900BF00BF601CC4B2042CE6DB002033
:10569000009001900120DFF8ACC000DFD8E70021C6
:1056A0002948DFF8A8C000DF1421294800F087FA54
:1056B0000320FFF7F7FC05E0FFF77FFD0120DFF88F
:1056C00084C000DFF8E703E00120DFF878C000DFE6
:1056D000FAE700211F48DFF874C000DF0CE04FF646
:1056E000FF711C48DFF870C000DF3220DFF854C0C3
:1056F00000DF002000F032F9F1E7184800210160D6
:1057000081801EE000F0A4F94FF480620021084679
:1057100000F06BF970B101201149887011480088C0
:1057200010B9B4200F4908800E480188002000F00D
:1057300045F902E000200A4988700120DFF804C022
:1057400000DFDFE791600008440000203D640008AE
:105750009C1800204C000020B56400086000002068
:105760005C00002058000020FFF7ADFFFFF797FF17
:10577000FFF766FFFFF7C1FFFFF7ABFFFFF73AFF49
:1057800064210020DFF878C000DF00231A460121E1
:10579000AFF21700DFF86CC000DF00231A460221C9
:1057A000AFF22B00DFF85CC000DF00231A460321B4
:1057B000AFF23F00DFF84CC000DF00231A4605219E
:1057C000AFF25300DFF83CC000DF00231A4601218E
:1057D000AFF26700DFF82CC000DF00231A46052176
:1057E000AFF27B00DFF81CC000DF0020DFF818C03C
:1057F00000DF00DE00DE00DE00DE00DE00DE000096
:105800001969000819670008AD67000810B504465B
:1058100014B1012C0CD105E04FF40061C448FDF730
:105820007CFA05E04FF40061C148FDF778FA00BF4B
:1058300000BF0CB9012C01D0012010BD0020FCE7F5
:1058400010B5044614B1012C0CD105E04FF4805181
:10585000B748FDF762FA05E04FF48051B448FDF710
:105860005EFA00BF00BF0CB1012C01D1012010BDB8
:105870000020FCE77CB505460C4628680090686867
:1058800001900121AB48FDF72EFA68B99DF80000A0
:10589000401CC0B28DF800009DF8000014280CDDFB
:1058A00015208DF8000008E09DF80000142804DDA4
:1058B0000120207000208DF8000002219D48FDF796
:1058C00012FA68B99DF80100401CC0B28DF80100C1
:1058D0009DF8010014280CDD15208DF8010008E06A
:1058E0009DF80100142804DD0120607000208DF86F
:1058F000010004218F48FDF7F6F978B99DF8020000
:10590000401CC0B28DF802009DF80200282808DD76
:1059100000208DF802000120A07002E000208DF828
:10592000020008218348FDF7DEF978B99DF80300ED
:10593000401CC0B28DF803009DF80300282808DD44
:1059400000208DF803000120E07002E000208DF8B7
:10595000030000982860019868607CBD10B504467B
:1059600014B1012C10D105E04FF480717248FDF79D
:10597000D6F909E04FF480716F48FDF7CEF96F4812
:10598000DFF8BCC100DF00BF00BF10BD70B504462A
:10599000022504FB05F0C4B20DE0601EC4B2012074
:1059A000FFF7DCFF4FF47A7090FBF5F086B23046DB
:1059B000DFF890C100DF002CEFD170BD70B5054657
:1059C0000C462DB94FF4805000EB041084B207E070
:1059D000012D05D1A80300EB041080B240F48054DF
:1059E00021465948FFF70AF870BD2DE9F0410546F8
:1059F0000E461446012715B1012D26D115E0082CBD
:105A000005D021464B48FDF76EF9074606E0082C05
:105A100004D121464848FDF766F90746012F00D119
:105A200000E000273846BDE8F08116B1012E0AD10A
:105A300004E021464048FDF772F904E021463E4863
:105A4000FDF76BF900BF00BF00BF00BF3846EAE7B3
:105A500070B5002420E034B1012C07D0022C08D00E
:105A6000032C0BD108E04FF4806507E04FF400658C
:105A700004E04FF4805501E0082500BF00BF2A462E
:105A800000210846FFF7B1FF20B1E21C611C2FA0E6
:105A900000F0EEF8601CC4B2042CDCDB70BD10B565
:105AA000044614B1012C0AD104E002212048FDF77C
:105AB00036F904E002211E48FDF72FF900BF00BFB0
:105AC00010BD10B504460120FFF7E9FF21462C4820
:105AD000FEF7F4FE0020FFF7E2FF10BD00B599B01D
:105AE0006421684600F06BF8642269462448FEF79A
:105AF00031FF642269462348FEF7D0FE22A000F061
:105B0000B7F819B000BD10B5044614B1012C0CD182
:105B100005E04FF400710848FDF701F905E04FF486
:105B200000710548FDF7F9F800BF00BF10BD000087
:105B30000008014000100140000C01404C00002012
:105B40007D6400089160000800300140D3D0CAE4B1
:105B5000C8EBB5C4B6CBBFDACAC7494E256420200E
:105B600020D7A2A3BABCB4CEAA4A31B5C42564BF1B
:105B7000DAD3D0CAE4C8EBD0C5BAC50D0A0000001C
:105B800000440040003801400D0A000040EA0103D3
:105B90009B0703D009E008C9121F08C0042AFAD2E3
:105BA00003E011F8013B00F8013B521EF9D27047A7
:105BB000D2B201E000F8012B491EFBD2704700224F
:105BC000F6E710B513460A4604461946FFF7F0FFFC
:105BD000204610BD421C10F8011B0029FBD1801A81
:105BE000704730B504460020034600E05B1C93423A
:105BF00003D2E05CCD5C401BF8D030BD30B505462B
:105C00000020034600E05B1C934205D2EC5CC85CBC
:105C1000201A01D1002CF6D130BD30B50B4601461B
:105C200000202022012409E021FA02F59D4205D33B
:105C300003FA02F5491B04FA02F52844151EA2F1E5
:105C40000102F1DC30BD0000064C074D06E0E068C3
:105C500040F0010394E8070098471034AC42F6D3B3
:105C6000FCF748FA386C0008586C00080000000087
:105C70000FB4054B10B503A9044A029800F03AF896
:105C800010BC5DF814FB0000DF4700089000002006
:105C900002E008C8121F08C1002AFAD170477047F5
:105CA000002001E001C1121F002AFBD1704710B58E
:105CB000002A06DA22F00042D21D22F00703102249
:105CC00003E0D21C22F003030C2213B19C188C4277
:105CD00001D9012010BD024401448360C0E90021C4
:105CE000C91AD018884202D810600246F9E700208D
:105CF000106010BD2DE9FF4F89B09B46044600257A
:105D000097E0252833D10027641C4E49B84601226C
:105D10002378203B02FA03F0084202D00743641CB8
:105D2000F6E720782E2819D114F8010F47F0040760
:105D30002A280ED06FF02F022078A0F13001092917
:105D40000CD808EB880102EB410100EB0108641C50
:105D5000F2E70A98641C50F8048B0A902078002817
:105D60006BD0642808D0692806D0752820D05A4600
:105D70000B9990476D1C5BE00A994FF00A0901C925
:105D80000A91002804DAC0F100004FF02D0102E072
:105D9000390504D52B218DF82010012103E0F907E6
:105DA00004D02021F7E78A4608AE0EE00021FAE78A
:105DB0000A994FF00A0901C90A91F7E74946FFF726
:105DC0002CFF01F1300106F8011D0028F6D1ADEBE2
:105DD000060000F12009780701D44FF00108C845FA
:105DE00002DDA8EB090000E000208046002706E065
:105DF00008A85A46C05D0B9990476D1C7F1C5745FB
:105E0000F6DB04E030205A460B9990476D1CB8F140
:105E10000001A8F10108F5DC05E016F8010B5A466F
:105E20000B9990476D1CB9F10001A9F10109F4DC4F
:105E3000641C207800287FF464AF0DB02846BDE8CC
:105E4000F08F00000928010008480068C0010BD548
:105E500007480068C00707D0054880380068002858
:105E600002DA04490120087070470000FCED00E0F0
:105E7000800E00E0740000204FF06042D36F002BD2
:105E8000FCD0436BD367D36F002BFCD0C07840EAC3
:105E90000120A2F87C0070474FF06041CA6F002AD1
:105EA000FCD081F87C007047F0B50B30154D20F028
:105EB00007010024144A0FE003688B420BD38B4286
:105EC00005D95E1A43184768C3E9006700E04368D4
:105ED000136002C004E0021D10680028ECD12046C7
:105EE000002802D1286808B10020F0BD064A074802
:105EF0001060074A121A22F00702C0E900240120AC
:105F00002860D7E798000020940000203419002072
:105F1000301B0020074801684FF0E020416100215C
:105F20008161072101610448016841F07F410160FE
:105F300040177047B069000820ED00E0704750E856
:105F4000001F31B10B6840E80032002AF7D1084643
:105F50007047BFF32F8FFAE770B50D46002812D0B7
:105F60004FF6FF71084C884204D222680146104661
:105F700000F0D4F920684570044800F0C3F8BDE88B
:105F8000704000F0C9BA70BD68000020FC18002005
:105F90000F4810B50D4942680E480B6800689342DF
:105FA00004D00A60CB88421E1A448A808A8880B254
:105FB00082420AD100200860054800F0A3F801469B
:105FC000BDE81040024800F0CDB910BD80000020AF
:105FD000FC1800207000002070B51A4DE8680028F9
:105FE0002ED0A88A401EA882002623E0A06838B1DF
:105FF00061684160606810B1A16881606660A660F8
:1060000010482146183800F0ADF9A08AA8826078BF
:10601000042804D10C49E08A09880844A0820120A0
:10602000607084F82500E068E860E06808B1056108
:10603000E6602661A88A002802D1EC68002CD5D140
:1060400070BD0000141900207000002070B504001D
:106050000FD00D4DA17801262868827891420CD985
:1060600000F09CF9286846702046BDE8704000F0BA
:1060700053BA064800F046F8F7E766702146BDE8D7
:106080007040024800F06EB968000020FC18002043
:106090000321FFF761BF000010B50446008B0843E1
:1060A00020836278618B062A16D0052A17D1084210
:1060B00015D001EA0002628388432083204600F065
:1060C00091F901206070022084F825002146BDE886
:1060D0001040034800F046B931EA0002ECD010BD90
:1060E000FC180020814202D342688A4201D8012074
:1060F000704750E8002F0A6040E80012002AF8D1EB
:10610000002070470146406842684A600B780022D0
:10611000022B05D0012B03D0032B01D04260704726
:1061200043680BB1996042608260704770B5044665
:1061300000201546207001226270A17084F824109E
:106140006060A060E06020612062A082E082208325
:10615000608384F8250084F82600208D18B905484E
:10616000FFF7EDFE206329462046BDE8704000F0B1
:106170000FB80000E002002003480021016003493D
:106180000988C1807047000080000020AC690008C9
:1061900010B5028D920803D10F4A1288C2F38D0206
:1061A000036B03EB8202530700D5121F403A4FF0F6
:1061B0008073C2E90E1300234FEA030442F8234020
:1061C0005B1C0E2BFAD3C3691362C2624163006B7E
:1061D0000249016010BD0000A8690008A52E5AE21E
:1061E0002DE9F0410F4604464168002004F10C06F9
:1061F00021B1617802291AD0A189A9B3A189E289C4
:10620000914246D2218904EB81010F61D6E85F1FDC
:10621000491CC6E8521F002AF8D12189491C89B2BD
:106220002181E289914200D12081BDE8F0810746B9
:1062300060702046FFF766FF80F8257021890546CB
:1062400004EB8101C0690861D6E85F0F401CC6E815
:10625000510F0029F8D12089401C80B22081E189AA
:1062600088420BD1278109E0FFE72046FFF74AFF6C
:106270000546C0690421076085F825100120687073
:10628000284600F0AFF82946BDE8F041034800F089
:1062900069B8BDE8F0410320FCF7D3B8FC18002032
:1062A00070B51B48012102685170006800F076F853
:1062B000184D6C7817E000BF05EBC4014868027800
:1062C000E2B1012A1FD000F0BFF8E878641C8442D4
:1062D00000D100240F48801CD0E84F1F491EC0E8A1
:1062E000421F002AF8D1A8780028E5D16C700A482E
:1062F000FFF708FFBDE8704000F00EB9098989B2C8
:10630000FFF7CAFEE1E78968FFF76AFFDDE70000F3
:1063100068000020F0160020FC180020104A10B57C
:10632000D368ABB113469B8A03E08CB12246A48AA2
:106330002344D4688B42F8D3C460D0600261C4683F
:1063400004B12061591A8182908A401A908210BD4E
:106350000024C460D060C91A02619182848210BD99
:106360001419002030B502780023022A03D0012A34
:1063700001D0032A00D101238C7800E01046426846
:1063800012B19578A542F9D24A6041601BB102B1C1
:106390009160886030BD0020FBE7000003494A6837
:1063A000426000228260486070470000FC180020B4
:1063B00010B5836804462BB9607801280ED1084BCC
:1063C00003E09B6818780028FBD0204600F01EF8F8
:1063D0002146BDE810401846FFF7C4BF10BD0000BD
:1063E000FC18002010B5016900290ED0C268CA60EF
:1063F000C36800223BB18B8A848A23448B82C368A2
:106400001961C26000E08A82026110BD816839B101
:1064100042684A604168002901D0806888607047FE
:10642000054906E04A68824202D1406848607047E8
:1064300011460029F6D17047FC1800200222027094
:10644000002242604180704710B5416879B1FFF782
:1064500059FE0446FFF7C6FF01206070032084F850
:1064600025002146BDE810400348FFF77BBF418867
:10647000491C418010BD0000FC18002010B5416887
:1064800089B1FFF73FFE0446032084F8250020462B
:10649000FFF7A8FF2046FFF7D9FD0549002009684E
:1064A00081F8250002E04188491C4180002010BD90
:1064B0006800002010B50C46418819B1491E418082
:1064C000002010BD34B10A4A4368116823B1FFF7B8
:1064D00049FF07E0012010BD4160136800215960A9
:1064E0001168886007212046FFF736FDF2E70000BB
:1064F0006800002006480068D0E90B10814203D3F1
:1065000000680449884202D00120FBF79ABF704717
:1065100068000020A52E5AE2074902224860427016
:10652000064A1278002A05D006C98A4202D0C078ED
:10653000FFF7B2BC70470000680000207400002024
:106540002DE9F047164688468146FFF77DFC00207E
:1065500004463E4A3E4902E042F82040401C0B8877
:106560009842F9D33B48382201883B48FFF79FFB0C
:106570003A48008880B240F0004239480168394802
:10658000FFF795FB38480822018838480068FFF774
:106590008EFB374FFF25374AFD703C85002138467A
:1065A000FFF7C4FD34480421017044603348017092
:1065B000C46004618482F86A2030FBF7A1FD304892
:1065C00031490760022078702E48047044700978C1
:1065D000C170FFF7D1FD2D48016841F47F010160D2
:1065E0000068290601EA00202849C0431439B0FA9E
:1065F00080F00968C0F10800C1F30221814200DB8C
:10660000481C2249091F0B686FF08072824063F3B7
:1066100017020A60FFF77EFC1D49002808600CDBAA
:106620001C49455400F01F020121914040114FF0D8
:10663000E02202EB8000C0F8001132464146484695
:10664000BDE8F047002300F067B800007418002090
:10665000A4690008C0690008A0000020A86900081B
:10666000C4690008E0020020CA6900081400002084
:10667000C41800203D240008FC1800201419002034
:1066800068000020F0160020C869000820ED00E036
:106690007C00002000E400E00C4810B502680121F5
:1066A00051700068FFF77AFEFFF772FC0848016836
:1066B000491C0160FFF790FC00F00EF80548FFF759
:1066C00021FDBDE81040FFF727BF00006800002053
:1066D00070000020FC18002070B50D4C20680028C8
:1066E00015D0A0880B4E401EA0800AE0E888FBF77A
:1066F000A7FEA888A0802868206029463068FFF798
:10670000F1FCA088002802D12568002DEED170BDD3
:1067100088000020140000202DE9F0411E46174695
:1067200080460C4611F0FF0F00D14C1C1A48FFF7B1
:1067300006FC05002DD0C4F30F202F632885E1B29D
:1067400042462846EE61FFF7F1FC01241348144944
:1067500006E000BF00EB840252F8042C22B1641C56
:106760000A889442F6D9002400EB8400E6B240F88F
:10677000045C0C48EE70007818B101212846FFF740
:106780007BFB2846FFF762FC0748006880F825601D
:106790002046BDE8F0810000A00000207418002011
:1067A000A469000874000020680000202DE9F05F53
:1067B000544DDFF848B1DFF848A129684FF00008D0
:1067C0004FF00509012610B1CA7882423FD14746F1
:1067D00081F80180FBF797FC2968C862FFF78AFE01
:1067E0002868B046046A18E06068A8B12046FFF740
:1067F00089FC064680F82590FFF7F4FD86F80180B5
:1068000031464148FFF7AEFDA4F80280A660316A28
:10681000E1603462E46800E0E468002CE4D12868B8
:10682000C2780AEB820141F8047C016B3748FFF71C
:1068300059FC286807639BF8001011B10021FFF78D
:106840001BFB33482968FFF74DFC2F6051E03149AD
:10685000098888420ED80AEB800757F8045C4DB1CE
:106860002846FFF7D3FD2846FFF7BCFDCA46B146D0
:106870002C6A1BE0FF20BDE8F09F6068A8B12046AD
:10688000FFF740FC064680F825A0FFF7ABFD86F831
:10689000019031461C48FFF765FDA4F80290A66000
:1068A000316AE1603462E46800E0E468002CE4D11D
:1068B00047F8048C44461548296BFFF713FC2C63FA
:1068C0009BF8000018B100212846FFF7D5FA2946A9
:1068D0000F48FFF707FC0C484068827809480168B8
:1068E0008B789A4208D981F8019001680648FFF731
:1068F00039FD0020FFF7AAFB0020BCE77400002050
:106900007418002068000020FC180020E00200201D
:10691000A0000020A469000870B51E4C002680B1BC
:106920001D4A1288904222D81C4A02EB800050F87F
:10693000045CE5B1A97085F824102068A84205D050
:1069400017E020688170206880F82410144840689F
:10695000807888421BD912482168FFF703FD21681F
:1069600001204870206880F8256000200DE0FF209D
:1069700070BD2846FFF71CFD6878012807D108483C
:10698000FFF7C0FB216881F82560FFF75FFB00205F
:1069900070BD000068000020A46900087418002081
:1069A000FC1800200A00000000020101F4010100AF
:1069B0003F19010001000000E80300000000000092
:1069C0003C02000010140000300000004E6F74699B
:1069D00063653A506C6561736520646F6E2774203F
:1069E00063686F6F7365207468652063686F69639F
:1069F000653A202753656E64206E6577206C696E5A
:106A00006527206F662074686520706F727420742B
:106A100065737420636861696E0D0A000D0A49662A
:106A200020796F752061726520756E66616D696C85
:106A30006961722077697468207468697320636F74
:106A40006D6D616E642073797374656D2C796F75EB
:106A50002063616E20757365207468652027686502
:106A60006C702720636F6D6D616E6420746F206C95
:106A70006561726E20636F6D6D616E6473206F6609
:106A800020746869732073797374656D0D0A000052
:106A9000B4CBCFEEC4BFCEAACEAAD6D0B3AEBFC6BB
:106AA000D0C50D0AC9E8BCC6D6F7D2AAB9A6C4DCBF
:106AB000C9E8BCC6CEAAA3BA0D0A312ECDE2B2BF38
:106AC000D0C5BAC5CAE4C8EB0D0A322EC4DAB2BFCB
:106AD000D0C5BAC5CAE4B3F60D0A332EBCFCC5CC8A
:106AE000CAE4C8EB0D0A342ECDE2B2BFD0C5BAC598
:106AF000BFAAB9D8C1BFBFD8D6C60D0A352E343803
:106B000035D0C5BAC5BDE8BFDA0D0A006C756E6137
:106B10006E74696E670D0AB0AEBAC3A3BAB4F24C14
:106B20004F4C0D0AB6CECEBBA3BAB0D7D2F856A3FF
:106B3000A8B2BBB9FDCAC7D7EEC7BFCDF5D5DFCB6D
:106B4000AEC6BD7EBAC7BAC77EA3A90D0AC9C3B374
:106B5000A4CEBBD7D3A3BAD6D0B5A5A1A2C9E4CA47
:106B6000D60D0AD7EEC9C3B3A4D3A2D0DBA3BABF54
:106B7000A8CCD8C1D5C4C8A3A8C6A4B3C7B5DAD217
:106B8000BBBFA8CCD87EB9FEB9FE7EA3A90D0A0072
:106B9000B4F3C7F8A3BAC6A4B3C7BEAFB1B80D0A61
:106BA000D5CABAC5A3BAC3F7C1B5CCD2BBA8D4B4B1
:106BB0000D0ABCB1D1B0D2BBC3FBB1A9C1A6B6D33B
:106BC000D3D1A3ACCEE5C5C5B5C4B8D0BEF5B2F837
:106BD000C8C6CED2A3ACCCABBEC3A1A30D0A0D0ACE
:106BE00000000000D6B8C1EEB4EDCEF30D0AD4AD6E
:106BF000D2F2A3BAB7C7B1BECFB5CDB3D6B8C1EE46
:106C00000D0AC7EBCAE4C8EBD5FDC8B7D6B8C1EECC
:106C100020202020202020BFC9CAB9D3C3276865FF
:106C20006C7027D6B8C1EED1B0C7F3B0EFD6FA0D6D
:106C30000A00000049000400586C00080000002011
:106C40009C000000905C0008F46C00089C00002090
:106C5000941E0000A05C000800A24A04000000008E
:106C600000000000010203040607080900000000FC
:106C700000000000010203040102030406070809E2
:106C800002040608000000000000000004000000EC
:106C900000000000000000000000000000000000F4
:106CA00000000000000000000000000000000000E4
:106CB00000000000000000000000000000000000D4
:106CC00000000000000000000000000000000000C4
:106CD00000000000000000000000000000000000B4
:106CE00000000000000000000000000000000000A4
:046CF00000000000A0
:04000005080020EDE2
:00000001FF
